:020000040800F2
:1000000000200020590B0008A50B0008A50B0008D4
:1000100000000000000000000000000000000000E0
:10002000000000000000000000000000A50B000818
:100030000000000000000000A50B00086D0A000889
:10004000A50B0008A50B0008A50B0008A50B0008D0
:10005000A50B00083D01000875010008A50B00086C
:10006000A50B0008A50B0008A50B0008A50B0008B0
:10007000A50B0008A50B0008A50B0008A50B0008A0
:10008000A50B0008A50B000800000000A50B000848
:10009000B1040008A50B0008A50B0008A50B00087B
:1000A000A50B0008A50B0008A50B0008A50B000870
:1000B000A50B000800000000A50B000800000000D0
:1000C0005FF808F180B582B000AF78600A1CFB1CB5
:1000D0001A70FB1C1B78002B06D0084B074A51698D
:1000E0007A680A435A6106E0044B044A5269796807
:1000F000C9430A405A61BD4602B080BD00100240AB
:1001000080B582B000AF78600A1CFB1C1A70FB1C23
:100110001B78002B06D0084B074A91697A680A437E
:100120009A6106E0044B044A92697968C9430A401F
:100130009A61BD4602B080BD0010024080B500AF9C
:100140000A4B5B69181C01F05DF8031E0CD0084BCC
:10015000181C00F045FF031C9AB2044B9A80034B15
:100160005B69181C01F06EF8BD4680BD24000020BC
:100170000040014080B500AF0A4B1B6B181C01F01A
:1001800041F8031E0CD0084B181C00F029FF031C7B
:100190009AB2044B1A84034B1B6B181C01F052F8E3
:1001A000BD4680BD240000200040014090B585B0D0
:1001B00000AFF8600C1C101C191C0A23FB18221C31
:1001C0001A800823FB18021C1A80BB1D0A1C1A8007
:1001D000FB681B889AB2BB1D0021595EFB681B8817
:1001E0001BB2CB1A0A2179180020095E4B431B125F
:1001F0009BB2D3189BB29AB2FB681A80FB685B88EB
:100200009AB2FB681B8819B2FB685B881BB2CB1AD9
:100210000A2179180020095E4B431B129BB2D318A8
:100220009BB29AB2FB685A80BD4605B090BDC046ED
:1002300080B582B000AF78600A1CBB1C1A807B6856
:100240001B68BA1C12885200032191400A1CD24339
:100250001A407B681A607B681A68BB1C1B885B00AD
:10026000012199400B1C1A437B681A60BD4602B0FD
:1002700080BDC04680B582B000AF78600A1CBB1C50
:100280001A807B681B68BA1C1288520003219140B7
:100290000A1CD2431A407B681A607B681A687B6824
:1002A0001A60BD4602B080BD80B586B000AF802325
:1002B0005B02181C0121FFF723FF1423FB181422F3
:1002C0001A701423FB1801229A701423FB180022C1
:1002D0005A701423FB18181C01F008F80823FB18A7
:1002E000234A5A600823FB1800221A810823FB18AE
:1002F00002221A800823FB1800225A800823FB18C8
:1003000000229A721B4A0823FB18101C191C00F0CB
:10031000EFFD184B181C012100F06CFE154B181C4A
:10032000012100F0EFFE134B181C0121012200F007
:1003300081FE3B1C01221A603B1C01221A713B1CEE
:1003400000229A713B1C0022DA713B1C00225A7178
:100350009023DA053B1C101C191C00F0DBFC9023D9
:10036000DB05181C012100F08BFDBD4606B080BDE9
:10037000FFF900000040014080B58AB000AFF8608E
:10038000B9603B60BB1D1A8080239B02181C0121B1
:10039000FFF798FE01200121FFF7B2FE3423FB187E
:1003A0001A783023FB181B78101C191C00F056FF1C
:1003B000FB683A685A61FB683022BA1812781A76DC
:1003C000FB683422BA1812785A76FB68BA68DA6089
:1003D000FB68BA1D12881A82FB6800221A72FB6839
:1003E0009C221A80FB689C225A80FB6800225A815A
:1003F000FB6800229A80FB682C4ADA80FB6838226E
:10040000BA1812789A76BB1D1A882023FB181A6036
:100410002023FB1800229A712023FB1801221A7155
:100420002023FB180022DA712023FB1800225A71C6
:10043000BA682023FB18101C191C00F06BFCBA686A
:10044000BB1D1B88101C191C00F01AFD3B68181CF2
:1004500000F0F8FE1823FB183A681A601823FB18FE
:1004600000221A711823FB1801229A711823FB1815
:1004700008225A711823FB18181C00F053FE382369
:10048000FB181A781423FB181A701423FB18012286
:100490005A701423FB1801229A701423FB18181C9D
:1004A00000F024FFBD460AB080BDC0461027000002
:1004B00090B583B000AFBB1D00221A707B1D0022D7
:1004C0001A70DB4B181C012100F0DCFD031E00D16B
:1004D00032E2D74B181C012100F014FEFB1D002254
:1004E0001A7036E1FB1D00229A56D249131CDB001C
:1004F0009B1A9B00CB189B889BB2002B00D121E15B
:10050000CD4B1B8898B2FB1D00229A56FB1D002183
:100510005956C84C0B1CDB005B1A9B00E3189B88E8
:100520009BB29BB21B1A9BB298B2C249131CDB0050
:100530009B1A9B00CB18021C9A80FB1D00229A5626
:10054000131CDB009B1A9B00BA4A9818FB1D002263
:100550009A56B849131CDB009B1A9B00CB189B884A
:100560009BB21BB233214022FFF720FEFB1D00226D
:100570009A56FB1D00215956AE480B1CDB005B1A36
:100580009B00C3185B889BB298B2FB1D0021595693
:10059000A84C0B1CDB005B1A9B00E318DB889BB2AA
:1005A0001BB29B119BB29BB2C31A9BB298B2A149DA
:1005B000131CDB009B1A9B00CB180833021C5A80CB
:1005C000FB1D00229A569B49131CDB009B1A9B00C3
:1005D000CB185B889BB21BB29901FB1D00229A5677
:1005E0009448131CDB009B1A9B00C318DB889BB24A
:1005F0001BB2CB1A1C13FB1D00229A56FB1D0021B7
:1006000059568C480B1CDB005B1A9B00C318DB8817
:100610009BB299B2A3B2CB189BB298B28549131C76
:10062000DB009B1A9B00CB18021CDA80FB1D00220A
:100630009A568049131CDB009B1A9B00CB18DB8861
:100640009BB219B2FB1D00229A567A48131CDB009C
:100650009B1A9B00C3185B889BB21BB29B019942FB
:1006600018DDFB1D00229A56FB1D002159567148CA
:100670000B1CDB005B1A9B00C3185B889BB21BB290
:100680009B0198B26B49131CDB009B1A9B00CB1893
:10069000021CDA80FB1D00229A566649131CDB00FF
:1006A0009B1A9B00CB1808335B889BB21BB2282B8C
:1006B00010DD624B1B78152B0CD1FB1D00229A56C6
:1006C0005C49131CDB009B1A9B00CB1808330122EA
:1006D0001A701AE0FB1D00229A565649131CDB00C3
:1006E0009B1A9B00CB1808335B889BB21BB21D2B57
:1006F0000BDCFB1D00229A564E49131CDB009B1A93
:100700009B00CB18083300221A704C4B1B78142B1B
:1007100018D1FB1D00229A56FB1D00215956454851
:100720000B1CDB005B1A9B00C3185B889BB21BB2DF
:100730009B0198B23F49131CDB009B1A9B00CB180E
:10074000021CDA80FB1D1B78DBB20133DAB2FB1D21
:100750001A70FB1D1B785BB2012B00DCC2E6374B25
:100760001B78142B03D1354B15221A7009E0334B3B
:100770001B78132B05D8314B1B780133DAB22F4B82
:100780001A702F4B1B685A1C2D4B1A609023DB05E7
:10079000181C012100F082FBFB1D00221A703BE0B7
:1007A000FB1D00229A562349131CDB009B1A9B0059
:1007B000CB1808335868FB1D00229A561D49131C9C
:1007C000DB009B1A9B00CB1818331B78DBB29BB263
:1007D000191CFFF72DFDFB1D00229A561549131C0D
:1007E000DB009B1A9B00CB1808335868FB1D0022C6
:1007F0009A561049131CDB009B1A9B00CB18103330
:100800001B889BB2191C00F049FBFB1D1B78DBB257
:100810000133DAB2FB1D1A70FB1D1B785BB2012B92
:10082000BEDDBB1D00221A70FB1D00221A702FE0D6
:100830000040014024000020140000201C00002083
:1008400018000020FB1D00229A563D49131CDB00B6
:100850009B1A9B00CB1808335868FB1D00229A5640
:100860003749131CDB009B1A9B00CB1810331B88E5
:100870009BB2191C00F0E0FA031E02D0BB1D01223E
:100880001A70FB1D1B78DBB20133DAB2FB1D1A7044
:10089000FB1D1B785BB2012BD4DDBB1D1B78002B2D
:1008A00002D17B1D01221A707B1D1B78002BB8D052
:1008B000FB1D00221A702CE0FB1D00229A562049D5
:1008C000131CDB009B1A9B00CB1808335868FB1DD8
:1008D00000229A561A49131CDB009B1A9B00CB1866
:1008E00018331B78DBB29BB2191CFFF7C3FCFB1D4E
:1008F00000229A561249131CDB009B1A9B00CB184E
:1009000000229A80FB1D1B78DBB20133DAB2FB1D9B
:100910001A70FB1D1B785BB2012BCDDD094B181C37
:1009200000F05EFB031C9AB2074B1A809023DB0594
:10093000181C012100F0A4FABD4603B090BDC046CA
:10094000240000200040014014000020B0B582B017
:1009500000AF021C3960FB1D1A70FB1D1B787F2B3A
:100960002FD92D4CFB1D1B781A1C0F231340083B5D
:100970009908294AFB1D1B78181C0F230340083BCC
:100980009B0806339B00D3185B68FA1D1278101C75
:1009900003220240D200101CFF228240D2431A40A0
:1009A0003B689B01FF200340F81D0078051C0320D5
:1009B0002840C00083401A438B1D9B00E3185A60F7
:1009C00026E0164CFB1D1B785BB29B081349FA1DF1
:1009D000127852B29208C03292005258F91D09782A
:1009E000081C03210140C900081CFF218140C943A4
:1009F00011403A689201FF200240F81D0078051C62
:100A000003202840C00082400A43C0339B001A5193
:100A1000BD4602B0B0BDC04600ED00E000E100E020
:100A200080B582B000AF78607B680E4A934201D9EE
:100A3000012312E00C4B7A681202120A013A5A6042
:100A400001235B42181C0321FFF780FF064B0022A5
:100A50009A60054B07221A600023181CBD4602B09D
:100A600080BDC046FFFFFF0010E000E080B500AF92
:100A7000034B1B685A1C024B1A60BD4680BDC04622
:100A80002000002080B584B004AF80231B03181C15
:100A90000121FFF717FB2B4BC02292001A60294B54
:100AA00001221A71274B00229A71264B0022DA711B
:100AB000244B00225A71244A224B101C191C00F0AE
:100AC00029F922499023DA05012300930023019399
:100AD00005230293081C111C02220223FFF74CFC81
:100AE0001B499023DA050223009300230193062378
:100AF0000293081C111C04220423FFF73DFCFFF79E
:100B0000D3FB144B1B68181CFA23990000F042FC1D
:100B1000031C181CFFF784FF0C4B1B7ADAB20A493E
:100B200080239B00081C191C00F0C6F9074B2422E7
:100B30009B5CDAB2044980235B00081C191C00F09E
:100B4000BBF9E9E76C000020000800482400002001
:100B500040000020000000200C488546002103E0F2
:100B60000B4B5B58435004310A480B4B42189A42D6
:100B7000F6D30A4A02E0002313600432084B9A427B
:100B8000F9D300F011F8FFF77DFFFEE70020002009
:100B9000B8140008000000201400002014000020F9
:100BA0007C000020FEE7000080B500AF1B4B1B4A15
:100BB000126801210A431A60184B184A52681849F2
:100BC0000A405A60154B154A126816490A401A60C5
:100BD000124B124A126814490A401A600F4B0F4A0E
:100BE000526812490A405A600C4B0C4AD26A0F21D3
:100BF0008A43DA62094B094A126B0D490A401A63AB
:100C0000064B064A526B01218A435A63034B00226A
:100C10009A6000F00FF8BD4680BDC046001002404B
:100C20000CB8FFF8FFFFF6FEFFFFFBFFFFFFC0FF62
:100C3000ACFEFFFF80B582B000AF00237B600023D5
:100C40003B60314B304A1268802149020A431A60E6
:100C50002D4B1A6880239B0213403B607B68013355
:100C60007B603B68002B04D17A68A023DB019A42A9
:100C7000EED1254B1A6880239B02134002D001233A
:100C80003B6001E000233B603B68012B38D11F4BE8
:100C900011221A601C4B1C4A52685A601A4B1A4A9D
:100CA00052685A60184B184A526819490A405A60EB
:100CB000154B154A5268882149030A435A60124B62
:100CC000114A1268802149040A431A60C0460E4B3B
:100CD0001A6880239B041340F9D00B4B0A4A5268D0
:100CE00003218A435A60084B074A526802210A438B
:100CF0005A60C046044B5B680C221340082BF9D1A4
:100D0000BD4602B080BDC046001002400020024037
:100D1000FFFFC0FF80B586B000AF78603960002368
:100D20007B6100233B610023FB6000237B617CE04F
:100D30007B6901229A40131C3B613B681B683A693E
:100D40001340FB60FA683B699A426BD13B681B79A0
:100D5000012B03D03B681B79022B34D17B689B6845
:100D60007A695200111C03228A40D2431A407B68E0
:100D70009A607B689A683B685B79191C7B695B00A9
:100D800099400B1C1A437B689A607B689B889BB2D6
:100D90007A6992B2111C01228A4092B2D24392B275
:100DA00013409AB27B689A807B689B889AB23B68B2
:100DB0009B79191C7B699BB299400B1C9BB2134316
:100DC0009AB27B689A807B681B687A695200111C12
:100DD00003228A40D2431A407B681A607B681A68F3
:100DE0003B681B79191C7B695B0099400B1C1A43FB
:100DF0007B681A607B68DB687A6992B252000321D3
:100E000091400A1CD2431A407B68DA607B68DA683A
:100E10003B68DB79191C7B695B0099400B1C1A430A
:100E20007B68DA607B6901337B617B690F2B00D8BB
:100E30007EE7BD4606B080BD80B584B000AF786067
:100E40000A1CBB1C1A800F23FB1800221A707B6837
:100E50001B8A9BB2BA1C128813409BB2002B04D091
:100E60000F23FB1801221A7003E00F23FB18002246
:100E70001A700F23FB181B78181CBD4604B080BDE8
:100E800080B582B000AF78600A1CBB1C1A80BB1C06
:100E90001A887B689A61BD4602B080BD80B582B079
:100EA00000AF78600A1CBB1C1A807B68BA1C1288D1
:100EB0001A85BD4602B080BD80B582B000AF7860B3
:100EC000081C111CBB1C021C1A807B1C0A1C1A70FB
:100ED0007B1C1B78002B04D0BB1C1A887B689A6192
:100EE00003E07B68BA1C12881A85BD4602B080BD3B
:100EF00080B584B000AF786039600E23FB18002203
:100F00001A800E23FB187A6812881A807B682D4A93
:100F1000934208D07A688023DB059A4203D07B682D
:100F2000294A934210D10E23FB180E22BA181288B8
:100F300070218A431A803B6859880E23FB180E22C1
:100F4000BA1812880A431A807B68204A934210D04C
:100F50000E23FB180E22BA1812881D490A401A8067
:100F60003B6819890E23FB180E22BA1812880A430F
:100F70001A807B680E22BA1812881A803B685A6859
:100F80007B68DA623B681A887B681A857B680D4A41
:100F900093420BD07B680F4A934207D07B680E4A7E
:100FA000934203D07B680D4A934204D13B689B7AFD
:100FB0009AB27B681A867B6801229A82BD4604B089
:100FC00080BDC046002C01400004004000100040DD
:100FD000FFFCFFFF00400140004401400048014089
:100FE00080B582B000AF78607B685B6A181CBD4634
:100FF00002B080BD80B582B000AF78600A1CFB1CD7
:101000001A70FB1C1B78002B08D07B681B889BB2D6
:10101000012213439AB27B681A8007E07B681B8821
:101020009BB2012293439AB27B681A80BD4602B0FC
:1010300080BDC04680B582B000AF7860081C111C2E
:10104000BB1C021C1A807B1C0A1C1A707B1C1B78A0
:10105000002B09D07B689B899AB2BB1C1B88134369
:101060009AB27B689A810AE07B689B899BB2BA1C22
:101070001288D24392B213409AB27B689A81BD46DD
:1010800002B080BD80B584B000AF78600A1CBB1C84
:101090001A800F23FB1800221A700C23FB18002261
:1010A0001A800A23FB1800221A807B681B8A9AB2D6
:1010B0000C23FB18B91C09880A401A807B689B899D
:1010C0009AB20A23FB18B91C09880A401A800C231B
:1010D000FB181B88002B09D00A23FB181B88002B48
:1010E00004D00F23FB1801221A7003E00F23FB1812
:1010F00000221A700F23FB181B78181CBD4604B081
:1011000080BDC04680B582B000AF78600A1CBB1CB1
:101110001A80BB1C1B88DB439AB27B681A82BD46CF
:1011200002B080BD80B584B000AF78600023FB6062
:10113000334BFB607B689B79002B4FD0304A304BA0
:1011400019687B681B68DB430B4013602C4A2C4BEF
:1011500059687B681B68DB430B4053607B681B79D5
:101160001A1CFB689B18FB60FB68FA6811687A68B8
:1011700012680A431A60224A214B99687B681B68EF
:10118000DB430B4093601E4A1D4BD9687B681B688C
:10119000DB430B40D3607B685B79102B0ED1184A80
:1011A000174B99687B681B680B439360144A144B78
:1011B000D9687B681B680B43D3601DE0104BFB6054
:1011C0007B685B791A1CFB689B18FB60FB68FA68FC
:1011D00011687A6812680A431A600DE07B681B790F
:1011E0001A1CFB689B18FB60FB68FA6811687A6838
:1011F0001268D2430A401A60BD4604B080BDC046A2
:101200000004014080B584B000AF78600F23FB1864
:1012100000221A700A4B5B697A68134004D00F23CE
:10122000FB1801221A7003E00F23FB1800221A702A
:101230000F23FB181B78181CBD4604B080BDC046A8
:101240000004014080B582B000AF7860024B7A683C
:101250005A61BD4602B080BD00040140B0B584B003
:1012600000AF021CFB1D1A70BB1D0A1C1A70002364
:10127000FB60BB1D1B78032213409B000F229A408A
:10128000131CFB601849BB1D1B789B08DBB2181CA4
:10129000154ABB1D1B789B08DBB202339B009B5891
:1012A000FA68D2431A40831C9B005A500E48BB1D5B
:1012B0001B789B08DBB21D1C0B4ABB1D1B789B08CF
:1012C000DBB202339B009A58FB1D1978BB1D1B78BB
:1012D000032423409B0099400B1C1A43AB1C9B002A
:1012E0001A50BD4604B0B0BD0000014080B584B0C6
:1012F00000AF78600023FB607B689B78002B39D0BF
:10130000234A7B681B789B08DBB2C0339B009B5849
:10131000FB607B681B781A1C03231340DB00FF2251
:101320009A40131CDA43FB681340FB607B685B78D0
:101330009B01FF221A407B681B78191C03230B407A
:10134000DB009A40131CFA681343FB6010497B686A
:101350001B789B08DBB2C0339B00FA685A500C4BD9
:101360007A681278111C1F220A40012191400A1C40
:101370001A600AE006497B681B781A1C1F23134079
:1013800001229A40131C80228B50BD4604B080BDC0
:1013900000E100E0002243088B4274D303098B4232
:1013A0005FD3030A8B4244D3030B8B4228D3030C35
:1013B0008B420DD3FF22090212BA030C8B4202D3D7
:1013C0001212090265D0030B8B4219D300E0090AFF
:1013D000C30B8B4201D3CB03C01A5241830B8B4208
:1013E00001D38B03C01A5241430B8B4201D34B03F1
:1013F000C01A5241030B8B4201D30B03C01A524156
:10140000C30A8B4201D3CB02C01A5241830A8B42DA
:1014100001D38B02C01A5241430A8B4201D34B02C3
:10142000C01A5241030A8B4201D30B02C01A524127
:10143000CDD2C3098B4201D3CB01C01A52418309DB
:101440008B4201D38B01C01A524143098B4201D315
:101450004B01C01A524103098B4201D30B01C01A40
:101460005241C3088B4201D3CB00C01A52418308BA
:101470008B4201D38B00C01A524143088B4201D3E7
:101480004B00C01A5241411A00D201465241104647
:101490007047FFE701B5002000F00CF802BDC04620
:1014A0000029F7D003B5FFF775FF0EBC4243891A38
:0814B0001847C0467047C04612
:1014B800006CDC02000000000000000001020304D0
:0414C8000607080902
:0400000508000000EF
:00000001FF
